{
  "_format": "hh-sol-artifact-1",
  "contractName": "CryptoDuck",
  "sourceName": "contracts/CryptoDuck.sol",
  "abi": [
    {
      "inputs": [],
      "stateMutability": "nonpayable",
      "type": "constructor"
    },
    {
      "anonymous": false,
      "inputs": [
        {
          "indexed": true,
          "internalType": "address",
          "name": "owner",
          "type": "address"
        },
        {
          "indexed": true,
          "internalType": "address",
          "name": "approved",
          "type": "address"
        },
        {
          "indexed": true,
          "internalType": "uint256",
          "name": "tokenId",
          "type": "uint256"
        }
      ],
      "name": "Approval",
      "type": "event"
    },
    {
      "anonymous": false,
      "inputs": [
        {
          "indexed": true,
          "internalType": "address",
          "name": "owner",
          "type": "address"
        },
        {
          "indexed": true,
          "internalType": "address",
          "name": "operator",
          "type": "address"
        },
        {
          "indexed": false,
          "internalType": "bool",
          "name": "approved",
          "type": "bool"
        }
      ],
      "name": "ApprovalForAll",
      "type": "event"
    },
    {
      "anonymous": false,
      "inputs": [
        {
          "indexed": false,
          "internalType": "address",
          "name": "sender",
          "type": "address"
        },
        {
          "indexed": false,
          "internalType": "uint256",
          "name": "tokenId",
          "type": "uint256"
        }
      ],
      "name": "NewNFTMinted",
      "type": "event"
    },
    {
      "anonymous": false,
      "inputs": [
        {
          "indexed": true,
          "internalType": "address",
          "name": "from",
          "type": "address"
        },
        {
          "indexed": true,
          "internalType": "address",
          "name": "to",
          "type": "address"
        },
        {
          "indexed": true,
          "internalType": "uint256",
          "name": "tokenId",
          "type": "uint256"
        }
      ],
      "name": "Transfer",
      "type": "event"
    },
    {
      "inputs": [
        {
          "internalType": "address",
          "name": "to",
          "type": "address"
        },
        {
          "internalType": "uint256",
          "name": "tokenId",
          "type": "uint256"
        }
      ],
      "name": "approve",
      "outputs": [],
      "stateMutability": "nonpayable",
      "type": "function"
    },
    {
      "inputs": [
        {
          "internalType": "address",
          "name": "owner",
          "type": "address"
        }
      ],
      "name": "balanceOf",
      "outputs": [
        {
          "internalType": "uint256",
          "name": "",
          "type": "uint256"
        }
      ],
      "stateMutability": "view",
      "type": "function"
    },
    {
      "inputs": [
        {
          "internalType": "uint256",
          "name": "tokenId",
          "type": "uint256"
        }
      ],
      "name": "getApproved",
      "outputs": [
        {
          "internalType": "address",
          "name": "",
          "type": "address"
        }
      ],
      "stateMutability": "view",
      "type": "function"
    },
    {
      "inputs": [
        {
          "internalType": "address",
          "name": "owner",
          "type": "address"
        },
        {
          "internalType": "address",
          "name": "operator",
          "type": "address"
        }
      ],
      "name": "isApprovedForAll",
      "outputs": [
        {
          "internalType": "bool",
          "name": "",
          "type": "bool"
        }
      ],
      "stateMutability": "view",
      "type": "function"
    },
    {
      "inputs": [
        {
          "internalType": "string",
          "name": "srcTokenUri",
          "type": "string"
        }
      ],
      "name": "makeAnEpicNFT",
      "outputs": [],
      "stateMutability": "nonpayable",
      "type": "function"
    },
    {
      "inputs": [],
      "name": "name",
      "outputs": [
        {
          "internalType": "string",
          "name": "",
          "type": "string"
        }
      ],
      "stateMutability": "view",
      "type": "function"
    },
    {
      "inputs": [
        {
          "internalType": "uint256",
          "name": "tokenId",
          "type": "uint256"
        }
      ],
      "name": "ownerOf",
      "outputs": [
        {
          "internalType": "address",
          "name": "",
          "type": "address"
        }
      ],
      "stateMutability": "view",
      "type": "function"
    },
    {
      "inputs": [
        {
          "internalType": "address",
          "name": "from",
          "type": "address"
        },
        {
          "internalType": "address",
          "name": "to",
          "type": "address"
        },
        {
          "internalType": "uint256",
          "name": "tokenId",
          "type": "uint256"
        }
      ],
      "name": "safeTransferFrom",
      "outputs": [],
      "stateMutability": "nonpayable",
      "type": "function"
    },
    {
      "inputs": [
        {
          "internalType": "address",
          "name": "from",
          "type": "address"
        },
        {
          "internalType": "address",
          "name": "to",
          "type": "address"
        },
        {
          "internalType": "uint256",
          "name": "tokenId",
          "type": "uint256"
        },
        {
          "internalType": "bytes",
          "name": "_data",
          "type": "bytes"
        }
      ],
      "name": "safeTransferFrom",
      "outputs": [],
      "stateMutability": "nonpayable",
      "type": "function"
    },
    {
      "inputs": [
        {
          "internalType": "address",
          "name": "operator",
          "type": "address"
        },
        {
          "internalType": "bool",
          "name": "approved",
          "type": "bool"
        }
      ],
      "name": "setApprovalForAll",
      "outputs": [],
      "stateMutability": "nonpayable",
      "type": "function"
    },
    {
      "inputs": [
        {
          "internalType": "bytes4",
          "name": "interfaceId",
          "type": "bytes4"
        }
      ],
      "name": "supportsInterface",
      "outputs": [
        {
          "internalType": "bool",
          "name": "",
          "type": "bool"
        }
      ],
      "stateMutability": "view",
      "type": "function"
    },
    {
      "inputs": [],
      "name": "symbol",
      "outputs": [
        {
          "internalType": "string",
          "name": "",
          "type": "string"
        }
      ],
      "stateMutability": "view",
      "type": "function"
    },
    {
      "inputs": [
        {
          "internalType": "uint256",
          "name": "tokenId",
          "type": "uint256"
        }
      ],
      "name": "tokenURI",
      "outputs": [
        {
          "internalType": "string",
          "name": "",
          "type": "string"
        }
      ],
      "stateMutability": "view",
      "type": "function"
    },
    {
      "inputs": [
        {
          "internalType": "address",
          "name": "from",
          "type": "address"
        },
        {
          "internalType": "address",
          "name": "to",
          "type": "address"
        },
        {
          "internalType": "uint256",
          "name": "tokenId",
          "type": "uint256"
        }
      ],
      "name": "transferFrom",
      "outputs": [],
      "stateMutability": "nonpayable",
      "type": "function"
    }
  ],
  "bytecode": "0x60806040523480156200001157600080fd5b506040518060400160405280600a81526020017f43727970746f4475636b000000000000000000000000000000000000000000008152506040518060400160405280600481526020017f4455434b00000000000000000000000000000000000000000000000000000000815250816000908051906020019062000096929190620001cf565b508060019080519060200190620000af929190620001cf565b505050620000fd6040518060400160405280601e81526020017f54686973206973206d79204e465420636f6e74726163742e20576f61682100008152506200010360201b62000c071760201c565b620003ac565b620001a3816040516024016200011a9190620002c0565b6040516020818303038152906040527f41304fac000000000000000000000000000000000000000000000000000000007bffffffffffffffffffffffffffffffffffffffffffffffffffffffff19166020820180517bffffffffffffffffffffffffffffffffffffffffffffffffffffffff8381831617835250505050620001a660201b60201c565b50565b60008151905060006a636f6e736f6c652e6c6f679050602083016000808483855afa5050505050565b828054620001dd9062000336565b90600052602060002090601f0160209004810192826200020157600085556200024d565b82601f106200021c57805160ff19168380011785556200024d565b828001600101855582156200024d579182015b828111156200024c5782518255916020019190600101906200022f565b5b5090506200025c919062000260565b5090565b5b808211156200027b57600081600090555060010162000261565b5090565b60006200028c82620002e4565b620002988185620002ef565b9350620002aa81856020860162000300565b620002b5816200039b565b840191505092915050565b60006020820190508181036000830152620002dc81846200027f565b905092915050565b600081519050919050565b600082825260208201905092915050565b60005b838110156200032057808201518184015260208101905062000303565b8381111562000330576000848401525b50505050565b600060028204905060018216806200034f57607f821691505b602082108114156200036657620003656200036c565b5b50919050565b7f4e487b7100000000000000000000000000000000000000000000000000000000600052602260045260246000fd5b6000601f19601f8301169050919050565b61333380620003bc6000396000f3fe608060405234801561001057600080fd5b50600436106100ea5760003560e01c80636352211e1161008c578063a22cb46511610066578063a22cb4651461025b578063b88d4fde14610277578063c87b56dd14610293578063e985e9c5146102c3576100ea565b80636352211e146101dd57806370a082311461020d57806395d89b411461023d576100ea565b8063095ea7b3116100c8578063095ea7b31461016d57806323b872dd1461018957806339fa8daf146101a557806342842e0e146101c1576100ea565b806301ffc9a7146100ef57806306fdde031461011f578063081812fc1461013d575b600080fd5b61010960048036038101906101049190612068565b6102f3565b60405161011691906125b3565b60405180910390f35b6101276103d5565b60405161013491906125ce565b60405180910390f35b610157600480360381019061015291906120fb565b610467565b6040516101649190612523565b60405180910390f35b6101876004803603810190610182919061202c565b6104ec565b005b6101a3600480360381019061019e9190611f26565b610604565b005b6101bf60048036038101906101ba91906120ba565b610664565b005b6101db60048036038101906101d69190611f26565b61078d565b005b6101f760048036038101906101f291906120fb565b6107ad565b6040516102049190612523565b60405180910390f35b61022760048036038101906102229190611ec1565b61085f565b604051610234919061284e565b60405180910390f35b610245610917565b60405161025291906125ce565b60405180910390f35b61027560048036038101906102709190611ff0565b6109a9565b005b610291600480360381019061028c9190611f75565b6109bf565b005b6102ad60048036038101906102a891906120fb565b610a21565b6040516102ba91906125ce565b60405180910390f35b6102dd60048036038101906102d89190611eea565b610b73565b6040516102ea91906125b3565b60405180910390f35b60007f80ac58cd000000000000000000000000000000000000000000000000000000007bffffffffffffffffffffffffffffffffffffffffffffffffffffffff1916827bffffffffffffffffffffffffffffffffffffffffffffffffffffffff191614806103be57507f5b5e139f000000000000000000000000000000000000000000000000000000007bffffffffffffffffffffffffffffffffffffffffffffffffffffffff1916827bffffffffffffffffffffffffffffffffffffffffffffffffffffffff1916145b806103ce57506103cd82610ca0565b5b9050919050565b6060600080546103e490612afe565b80601f016020809104026020016040519081016040528092919081815260200182805461041090612afe565b801561045d5780601f106104325761010080835404028352916020019161045d565b820191906000526020600020905b81548152906001019060200180831161044057829003601f168201915b5050505050905090565b600061047282610d0a565b6104b1576040517f08c379a00000000000000000000000000000000000000000000000000000000081526004016104a8906127ce565b60405180910390fd5b6004600083815260200190815260200160002060009054906101000a900473ffffffffffffffffffffffffffffffffffffffff169050919050565b60006104f7826107ad565b90508073ffffffffffffffffffffffffffffffffffffffff168373ffffffffffffffffffffffffffffffffffffffff161415610568576040517f08c379a000000000000000000000000000000000000000000000000000000000815260040161055f9061280e565b60405180910390fd5b8073ffffffffffffffffffffffffffffffffffffffff16610587610d76565b73ffffffffffffffffffffffffffffffffffffffff1614806105b657506105b5816105b0610d76565b610b73565b5b6105f5576040517f08c379a00000000000000000000000000000000000000000000000000000000081526004016105ec906126ee565b60405180910390fd5b6105ff8383610d7e565b505050565b61061561060f610d76565b82610e37565b610654576040517f08c379a000000000000000000000000000000000000000000000000000000000815260040161064b9061282e565b60405180910390fd5b61065f838383610f15565b505050565b600061066f3361085f565b146106af576040517f08c379a00000000000000000000000000000000000000000000000000000000081526004016106a69061278e565b60405180910390fd5b60006106bb600761117c565b90506106c7338261118a565b60006106f1836040516020016106dd91906124d4565b6040516020818303038152906040526111a8565b90506000816040516020016107069190612501565b60405160208183030381529060405290506107218382611366565b6107446040518060600160405280602581526020016132996025913984336113da565b61074e6007611479565b7f1c05098ed1ff38e6238d2b1b04b2c7977d4c94ce651bda6473f9dba8dbf01da0338460405161077f92919061258a565b60405180910390a150505050565b6107a8838383604051806020016040528060008152506109bf565b505050565b6000806002600084815260200190815260200160002060009054906101000a900473ffffffffffffffffffffffffffffffffffffffff169050600073ffffffffffffffffffffffffffffffffffffffff168173ffffffffffffffffffffffffffffffffffffffff161415610856576040517f08c379a000000000000000000000000000000000000000000000000000000000815260040161084d9061272e565b60405180910390fd5b80915050919050565b60008073ffffffffffffffffffffffffffffffffffffffff168273ffffffffffffffffffffffffffffffffffffffff1614156108d0576040517f08c379a00000000000000000000000000000000000000000000000000000000081526004016108c79061270e565b60405180910390fd5b600360008373ffffffffffffffffffffffffffffffffffffffff1673ffffffffffffffffffffffffffffffffffffffff168152602001908152602001600020549050919050565b60606001805461092690612afe565b80601f016020809104026020016040519081016040528092919081815260200182805461095290612afe565b801561099f5780601f106109745761010080835404028352916020019161099f565b820191906000526020600020905b81548152906001019060200180831161098257829003601f168201915b5050505050905090565b6109bb6109b4610d76565b838361148f565b5050565b6109d06109ca610d76565b83610e37565b610a0f576040517f08c379a0000000000000000000000000000000000000000000000000000000008152600401610a069061282e565b60405180910390fd5b610a1b848484846115fc565b50505050565b6060610a2c82610d0a565b610a6b576040517f08c379a0000000000000000000000000000000000000000000000000000000008152600401610a62906127ae565b60405180910390fd5b6000600660008481526020019081526020016000208054610a8b90612afe565b80601f0160208091040260200160405190810160405280929190818152602001828054610ab790612afe565b8015610b045780601f10610ad957610100808354040283529160200191610b04565b820191906000526020600020905b815481529060010190602001808311610ae757829003601f168201915b505050505090506000610b15611658565b9050600081511415610b2b578192505050610b6e565b600082511115610b60578082604051602001610b489291906124b0565b60405160208183030381529060405292505050610b6e565b610b698461166f565b925050505b919050565b6000600560008473ffffffffffffffffffffffffffffffffffffffff1673ffffffffffffffffffffffffffffffffffffffff16815260200190815260200160002060008373ffffffffffffffffffffffffffffffffffffffff1673ffffffffffffffffffffffffffffffffffffffff16815260200190815260200160002060009054906101000a900460ff16905092915050565b610c9d81604051602401610c1b91906125ce565b6040516020818303038152906040527f41304fac000000000000000000000000000000000000000000000000000000007bffffffffffffffffffffffffffffffffffffffffffffffffffffffff19166020820180517bffffffffffffffffffffffffffffffffffffffffffffffffffffffff8381831617835250505050611716565b50565b60007f01ffc9a7000000000000000000000000000000000000000000000000000000007bffffffffffffffffffffffffffffffffffffffffffffffffffffffff1916827bffffffffffffffffffffffffffffffffffffffffffffffffffffffff1916149050919050565b60008073ffffffffffffffffffffffffffffffffffffffff166002600084815260200190815260200160002060009054906101000a900473ffffffffffffffffffffffffffffffffffffffff1673ffffffffffffffffffffffffffffffffffffffff1614159050919050565b600033905090565b816004600083815260200190815260200160002060006101000a81548173ffffffffffffffffffffffffffffffffffffffff021916908373ffffffffffffffffffffffffffffffffffffffff160217905550808273ffffffffffffffffffffffffffffffffffffffff16610df1836107ad565b73ffffffffffffffffffffffffffffffffffffffff167f8c5be1e5ebec7d5bd14f71427d1e84f3dd0314c0f7b2291e5b200ac8c7c3b92560405160405180910390a45050565b6000610e4282610d0a565b610e81576040517f08c379a0000000000000000000000000000000000000000000000000000000008152600401610e78906126ce565b60405180910390fd5b6000610e8c836107ad565b90508073ffffffffffffffffffffffffffffffffffffffff168473ffffffffffffffffffffffffffffffffffffffff161480610efb57508373ffffffffffffffffffffffffffffffffffffffff16610ee384610467565b73ffffffffffffffffffffffffffffffffffffffff16145b80610f0c5750610f0b8185610b73565b5b91505092915050565b8273ffffffffffffffffffffffffffffffffffffffff16610f35826107ad565b73ffffffffffffffffffffffffffffffffffffffff1614610f8b576040517f08c379a0000000000000000000000000000000000000000000000000000000008152600401610f829061264e565b60405180910390fd5b600073ffffffffffffffffffffffffffffffffffffffff168273ffffffffffffffffffffffffffffffffffffffff161415610ffb576040517f08c379a0000000000000000000000000000000000000000000000000000000008152600401610ff29061268e565b60405180910390fd5b61100683838361173f565b611011600082610d7e565b6001600360008573ffffffffffffffffffffffffffffffffffffffff1673ffffffffffffffffffffffffffffffffffffffff16815260200190815260200160002060008282546110619190612a14565b925050819055506001600360008473ffffffffffffffffffffffffffffffffffffffff1673ffffffffffffffffffffffffffffffffffffffff16815260200190815260200160002060008282546110b89190612933565b92505081905550816002600083815260200190815260200160002060006101000a81548173ffffffffffffffffffffffffffffffffffffffff021916908373ffffffffffffffffffffffffffffffffffffffff160217905550808273ffffffffffffffffffffffffffffffffffffffff168473ffffffffffffffffffffffffffffffffffffffff167fddf252ad1be2c89b69c2b068fc378daa952ba7f163c4a11628f55a4df523b3ef60405160405180910390a4611177838383611744565b505050565b600081600001549050919050565b6111a4828260405180602001604052806000815250611749565b5050565b606060008251905060008114156111d15760405180602001604052806000815250915050611361565b600060036002836111e29190612933565b6111ec9190612989565b60046111f891906129ba565b905060006020826112099190612933565b67ffffffffffffffff811115611248577f4e487b7100000000000000000000000000000000000000000000000000000000600052604160045260246000fd5b6040519080825280601f01601f19166020018201604052801561127a5781602001600182028036833780820191505090505b50905060006040518060600160405280604081526020016132be604091399050600181016020830160005b8681101561131e5760038101905062ffffff818a015116603f8160121c168401518060081b905060ff603f83600c1c1686015116810190508060081b905060ff603f8360061c1686015116810190508060081b905060ff603f831686015116810190508060e01b905080845260048401935050506112a5565b506003860660018114611338576002811461134857611353565b613d3d60f01b6002830352611353565b603d60f81b60018303525b508484525050819450505050505b919050565b61136f82610d0a565b6113ae576040517f08c379a00000000000000000000000000000000000000000000000000000000081526004016113a59061274e565b60405180910390fd5b806006600084815260200190815260200160002090805190602001906113d5929190611ce5565b505050565b6114748383836040516024016113f2939291906125f0565b6040516020818303038152906040527fe3849f79000000000000000000000000000000000000000000000000000000007bffffffffffffffffffffffffffffffffffffffffffffffffffffffff19166020820180517bffffffffffffffffffffffffffffffffffffffffffffffffffffffff8381831617835250505050611716565b505050565b6001816000016000828254019250508190555050565b8173ffffffffffffffffffffffffffffffffffffffff168373ffffffffffffffffffffffffffffffffffffffff1614156114fe576040517f08c379a00000000000000000000000000000000000000000000000000000000081526004016114f5906126ae565b60405180910390fd5b80600560008573ffffffffffffffffffffffffffffffffffffffff1673ffffffffffffffffffffffffffffffffffffffff16815260200190815260200160002060008473ffffffffffffffffffffffffffffffffffffffff1673ffffffffffffffffffffffffffffffffffffffff16815260200190815260200160002060006101000a81548160ff0219169083151502179055508173ffffffffffffffffffffffffffffffffffffffff168373ffffffffffffffffffffffffffffffffffffffff167f17307eab39ab6107e8899845ad3d59bd9653f200f220920489ca2b5937696c31836040516115ef91906125b3565b60405180910390a3505050565b611607848484610f15565b611613848484846117a4565b611652576040517f08c379a00000000000000000000000000000000000000000000000000000000081526004016116499061262e565b60405180910390fd5b50505050565b606060405180602001604052806000815250905090565b606061167a82610d0a565b6116b9576040517f08c379a00000000000000000000000000000000000000000000000000000000081526004016116b0906127ee565b60405180910390fd5b60006116c3611658565b905060008151116116e3576040518060200160405280600081525061170e565b806116ed8461193b565b6040516020016116fe9291906124b0565b6040516020818303038152906040525b915050919050565b60008151905060006a636f6e736f6c652e6c6f679050602083016000808483855afa5050505050565b505050565b505050565b6117538383611ae8565b61176060008484846117a4565b61179f576040517f08c379a00000000000000000000000000000000000000000000000000000000081526004016117969061262e565b60405180910390fd5b505050565b60006117c58473ffffffffffffffffffffffffffffffffffffffff16611cc2565b1561192e578373ffffffffffffffffffffffffffffffffffffffff1663150b7a026117ee610d76565b8786866040518563ffffffff1660e01b8152600401611810949392919061253e565b602060405180830381600087803b15801561182a57600080fd5b505af192505050801561185b57506040513d601f19601f820116820180604052508101906118589190612091565b60015b6118de573d806000811461188b576040519150601f19603f3d011682016040523d82523d6000602084013e611890565b606091505b506000815114156118d6576040517f08c379a00000000000000000000000000000000000000000000000000000000081526004016118cd9061262e565b60405180910390fd5b805181602001fd5b63150b7a0260e01b7bffffffffffffffffffffffffffffffffffffffffffffffffffffffff1916817bffffffffffffffffffffffffffffffffffffffffffffffffffffffff191614915050611933565b600190505b949350505050565b60606000821415611983576040518060400160405280600181526020017f30000000000000000000000000000000000000000000000000000000000000008152509050611ae3565b600082905060005b600082146119b557808061199e90612b61565b915050600a826119ae9190612989565b915061198b565b60008167ffffffffffffffff8111156119f7577f4e487b7100000000000000000000000000000000000000000000000000000000600052604160045260246000fd5b6040519080825280601f01601f191660200182016040528015611a295781602001600182028036833780820191505090505b5090505b60008514611adc57600182611a429190612a14565b9150600a85611a519190612baa565b6030611a5d9190612933565b60f81b818381518110611a99577f4e487b7100000000000000000000000000000000000000000000000000000000600052603260045260246000fd5b60200101907effffffffffffffffffffffffffffffffffffffffffffffffffffffffffffff1916908160001a905350600a85611ad59190612989565b9450611a2d565b8093505050505b919050565b600073ffffffffffffffffffffffffffffffffffffffff168273ffffffffffffffffffffffffffffffffffffffff161415611b58576040517f08c379a0000000000000000000000000000000000000000000000000000000008152600401611b4f9061276e565b60405180910390fd5b611b6181610d0a565b15611ba1576040517f08c379a0000000000000000000000000000000000000000000000000000000008152600401611b989061266e565b60405180910390fd5b611bad6000838361173f565b6001600360008473ffffffffffffffffffffffffffffffffffffffff1673ffffffffffffffffffffffffffffffffffffffff1681526020019081526020016000206000828254611bfd9190612933565b92505081905550816002600083815260200190815260200160002060006101000a81548173ffffffffffffffffffffffffffffffffffffffff021916908373ffffffffffffffffffffffffffffffffffffffff160217905550808273ffffffffffffffffffffffffffffffffffffffff16600073ffffffffffffffffffffffffffffffffffffffff167fddf252ad1be2c89b69c2b068fc378daa952ba7f163c4a11628f55a4df523b3ef60405160405180910390a4611cbe60008383611744565b5050565b6000808273ffffffffffffffffffffffffffffffffffffffff163b119050919050565b828054611cf190612afe565b90600052602060002090601f016020900481019282611d135760008555611d5a565b82601f10611d2c57805160ff1916838001178555611d5a565b82800160010185558215611d5a579182015b82811115611d59578251825591602001919060010190611d3e565b5b509050611d679190611d6b565b5090565b5b80821115611d84576000816000905550600101611d6c565b5090565b6000611d9b611d968461288e565b612869565b905082815260208101848484011115611db357600080fd5b611dbe848285612abc565b509392505050565b6000611dd9611dd4846128bf565b612869565b905082815260208101848484011115611df157600080fd5b611dfc848285612abc565b509392505050565b600081359050611e138161323c565b92915050565b600081359050611e2881613253565b92915050565b600081359050611e3d8161326a565b92915050565b600081519050611e528161326a565b92915050565b600082601f830112611e6957600080fd5b8135611e79848260208601611d88565b91505092915050565b600082601f830112611e9357600080fd5b8135611ea3848260208601611dc6565b91505092915050565b600081359050611ebb81613281565b92915050565b600060208284031215611ed357600080fd5b6000611ee184828501611e04565b91505092915050565b60008060408385031215611efd57600080fd5b6000611f0b85828601611e04565b9250506020611f1c85828601611e04565b9150509250929050565b600080600060608486031215611f3b57600080fd5b6000611f4986828701611e04565b9350506020611f5a86828701611e04565b9250506040611f6b86828701611eac565b9150509250925092565b60008060008060808587031215611f8b57600080fd5b6000611f9987828801611e04565b9450506020611faa87828801611e04565b9350506040611fbb87828801611eac565b925050606085013567ffffffffffffffff811115611fd857600080fd5b611fe487828801611e58565b91505092959194509250565b6000806040838503121561200357600080fd5b600061201185828601611e04565b925050602061202285828601611e19565b9150509250929050565b6000806040838503121561203f57600080fd5b600061204d85828601611e04565b925050602061205e85828601611eac565b9150509250929050565b60006020828403121561207a57600080fd5b600061208884828501611e2e565b91505092915050565b6000602082840312156120a357600080fd5b60006120b184828501611e43565b91505092915050565b6000602082840312156120cc57600080fd5b600082013567ffffffffffffffff8111156120e657600080fd5b6120f284828501611e82565b91505092915050565b60006020828403121561210d57600080fd5b600061211b84828501611eac565b91505092915050565b61212d81612a48565b82525050565b61213c81612a5a565b82525050565b600061214d826128f0565b6121578185612906565b9350612167818560208601612acb565b61217081612c97565b840191505092915050565b6000612186826128fb565b6121908185612917565b93506121a0818560208601612acb565b6121a981612c97565b840191505092915050565b60006121bf826128fb565b6121c98185612928565b93506121d9818560208601612acb565b80840191505092915050565b60006121f2603283612917565b91506121fd82612ca8565b604082019050919050565b6000612215604f83612928565b915061222082612cf7565b604f82019050919050565b6000612238602583612917565b915061224382612d6c565b604082019050919050565b600061225b601c83612917565b915061226682612dbb565b602082019050919050565b600061227e602483612917565b915061228982612de4565b604082019050919050565b60006122a1601983612917565b91506122ac82612e33565b602082019050919050565b60006122c4602c83612917565b91506122cf82612e5c565b604082019050919050565b60006122e7603883612917565b91506122f282612eab565b604082019050919050565b600061230a602a83612917565b915061231582612efa565b604082019050919050565b600061232d602983612917565b915061233882612f49565b604082019050919050565b6000612350602e83612917565b915061235b82612f98565b604082019050919050565b6000612373600283612928565b915061237e82612fe7565b600282019050919050565b6000612396602083612917565b91506123a182613010565b602082019050919050565b60006123b9602983612917565b91506123c482613039565b604082019050919050565b60006123dc603183612917565b91506123e782613088565b604082019050919050565b60006123ff602c83612917565b915061240a826130d7565b604082019050919050565b6000612422602f83612917565b915061242d82613126565b604082019050919050565b6000612445602183612917565b915061245082613175565b604082019050919050565b6000612468601d83612928565b9150612473826131c4565b601d82019050919050565b600061248b603183612917565b9150612496826131ed565b604082019050919050565b6124aa81612ab2565b82525050565b60006124bc82856121b4565b91506124c882846121b4565b91508190509392505050565b60006124df82612208565b91506124eb82846121b4565b91506124f682612366565b915081905092915050565b600061250c8261245b565b915061251882846121b4565b915081905092915050565b60006020820190506125386000830184612124565b92915050565b60006080820190506125536000830187612124565b6125606020830186612124565b61256d60408301856124a1565b818103606083015261257f8184612142565b905095945050505050565b600060408201905061259f6000830185612124565b6125ac60208301846124a1565b9392505050565b60006020820190506125c86000830184612133565b92915050565b600060208201905081810360008301526125e8818461217b565b905092915050565b6000606082019050818103600083015261260a818661217b565b905061261960208301856124a1565b6126266040830184612124565b949350505050565b60006020820190508181036000830152612647816121e5565b9050919050565b600060208201905081810360008301526126678161222b565b9050919050565b600060208201905081810360008301526126878161224e565b9050919050565b600060208201905081810360008301526126a781612271565b9050919050565b600060208201905081810360008301526126c781612294565b9050919050565b600060208201905081810360008301526126e7816122b7565b9050919050565b60006020820190508181036000830152612707816122da565b9050919050565b60006020820190508181036000830152612727816122fd565b9050919050565b6000602082019050818103600083015261274781612320565b9050919050565b6000602082019050818103600083015261276781612343565b9050919050565b6000602082019050818103600083015261278781612389565b9050919050565b600060208201905081810360008301526127a7816123ac565b9050919050565b600060208201905081810360008301526127c7816123cf565b9050919050565b600060208201905081810360008301526127e7816123f2565b9050919050565b6000602082019050818103600083015261280781612415565b9050919050565b6000602082019050818103600083015261282781612438565b9050919050565b600060208201905081810360008301526128478161247e565b9050919050565b600060208201905061286360008301846124a1565b92915050565b6000612873612884565b905061287f8282612b30565b919050565b6000604051905090565b600067ffffffffffffffff8211156128a9576128a8612c68565b5b6128b282612c97565b9050602081019050919050565b600067ffffffffffffffff8211156128da576128d9612c68565b5b6128e382612c97565b9050602081019050919050565b600081519050919050565b600081519050919050565b600082825260208201905092915050565b600082825260208201905092915050565b600081905092915050565b600061293e82612ab2565b915061294983612ab2565b9250827fffffffffffffffffffffffffffffffffffffffffffffffffffffffffffffffff0382111561297e5761297d612bdb565b5b828201905092915050565b600061299482612ab2565b915061299f83612ab2565b9250826129af576129ae612c0a565b5b828204905092915050565b60006129c582612ab2565b91506129d083612ab2565b9250817fffffffffffffffffffffffffffffffffffffffffffffffffffffffffffffffff0483118215151615612a0957612a08612bdb565b5b828202905092915050565b6000612a1f82612ab2565b9150612a2a83612ab2565b925082821015612a3d57612a3c612bdb565b5b828203905092915050565b6000612a5382612a92565b9050919050565b60008115159050919050565b60007fffffffff0000000000000000000000000000000000000000000000000000000082169050919050565b600073ffffffffffffffffffffffffffffffffffffffff82169050919050565b6000819050919050565b82818337600083830152505050565b60005b83811015612ae9578082015181840152602081019050612ace565b83811115612af8576000848401525b50505050565b60006002820490506001821680612b1657607f821691505b60208210811415612b2a57612b29612c39565b5b50919050565b612b3982612c97565b810181811067ffffffffffffffff82111715612b5857612b57612c68565b5b80604052505050565b6000612b6c82612ab2565b91507fffffffffffffffffffffffffffffffffffffffffffffffffffffffffffffffff821415612b9f57612b9e612bdb565b5b600182019050919050565b6000612bb582612ab2565b9150612bc083612ab2565b925082612bd057612bcf612c0a565b5b828206905092915050565b7f4e487b7100000000000000000000000000000000000000000000000000000000600052601160045260246000fd5b7f4e487b7100000000000000000000000000000000000000000000000000000000600052601260045260246000fd5b7f4e487b7100000000000000000000000000000000000000000000000000000000600052602260045260246000fd5b7f4e487b7100000000000000000000000000000000000000000000000000000000600052604160045260246000fd5b6000601f19601f8301169050919050565b7f4552433732313a207472616e7366657220746f206e6f6e20455243373231526560008201527f63656976657220696d706c656d656e7465720000000000000000000000000000602082015250565b7f7b226e616d65223a202243727970746f204475636b222c20226465736372697060008201527f74696f6e223a202241206d61676e69666963656e742063727970746f2064756360208201527f6b2e222c2022696d616765223a20220000000000000000000000000000000000604082015250565b7f4552433732313a207472616e736665722066726f6d20696e636f72726563742060008201527f6f776e6572000000000000000000000000000000000000000000000000000000602082015250565b7f4552433732313a20746f6b656e20616c7265616479206d696e74656400000000600082015250565b7f4552433732313a207472616e7366657220746f20746865207a65726f2061646460008201527f7265737300000000000000000000000000000000000000000000000000000000602082015250565b7f4552433732313a20617070726f766520746f2063616c6c657200000000000000600082015250565b7f4552433732313a206f70657261746f7220717565727920666f72206e6f6e657860008201527f697374656e7420746f6b656e0000000000000000000000000000000000000000602082015250565b7f4552433732313a20617070726f76652063616c6c6572206973206e6f74206f7760008201527f6e6572206e6f7220617070726f76656420666f7220616c6c0000000000000000602082015250565b7f4552433732313a2062616c616e636520717565727920666f7220746865207a6560008201527f726f206164647265737300000000000000000000000000000000000000000000602082015250565b7f4552433732313a206f776e657220717565727920666f72206e6f6e657869737460008201527f656e7420746f6b656e0000000000000000000000000000000000000000000000602082015250565b7f45524337323155524953746f726167653a2055524920736574206f66206e6f6e60008201527f6578697374656e7420746f6b656e000000000000000000000000000000000000602082015250565b7f227d000000000000000000000000000000000000000000000000000000000000600082015250565b7f4552433732313a206d696e7420746f20746865207a65726f2061646472657373600082015250565b7f456163682061646472657373206d6179206f6e6c79206f776e206f6e6520637260008201527f7970746f206475636b0000000000000000000000000000000000000000000000602082015250565b7f45524337323155524953746f726167653a2055524920717565727920666f722060008201527f6e6f6e6578697374656e7420746f6b656e000000000000000000000000000000602082015250565b7f4552433732313a20617070726f76656420717565727920666f72206e6f6e657860008201527f697374656e7420746f6b656e0000000000000000000000000000000000000000602082015250565b7f4552433732314d657461646174613a2055524920717565727920666f72206e6f60008201527f6e6578697374656e7420746f6b656e0000000000000000000000000000000000602082015250565b7f4552433732313a20617070726f76616c20746f2063757272656e74206f776e6560008201527f7200000000000000000000000000000000000000000000000000000000000000602082015250565b7f646174613a6170706c69636174696f6e2f6a736f6e3b6261736536342c000000600082015250565b7f4552433732313a207472616e736665722063616c6c6572206973206e6f74206f60008201527f776e6572206e6f7220617070726f766564000000000000000000000000000000602082015250565b61324581612a48565b811461325057600080fd5b50565b61325c81612a5a565b811461326757600080fd5b50565b61327381612a66565b811461327e57600080fd5b50565b61328a81612ab2565b811461329557600080fd5b5056fe416e204e465420772f20494420257320686173206265656e206d696e74656420746f2025734142434445464748494a4b4c4d4e4f505152535455565758595a6162636465666768696a6b6c6d6e6f707172737475767778797a303132333435363738392b2fa26469706673582212202cff06c02929c6c412a7493a929b4c796b9e9425086a79978e142aa38652f68264736f6c63430008010033",
  "linkReferences": {},
  "deployedLinkReferences": {}
}